{
  "contractName": "Item",
  "abi": [
    {
      "inputs": [
        {
          "internalType": "contract ItemManager",
          "name": "_parentContract",
          "type": "address"
        },
        {
          "internalType": "uint256",
          "name": "_itemPriceInWei",
          "type": "uint256"
        },
        {
          "internalType": "uint256",
          "name": "_index",
          "type": "uint256"
        }
      ],
      "stateMutability": "nonpayable",
      "type": "constructor"
    },
    {
      "inputs": [],
      "name": "index",
      "outputs": [
        {
          "internalType": "uint256",
          "name": "",
          "type": "uint256"
        }
      ],
      "stateMutability": "view",
      "type": "function"
    },
    {
      "inputs": [],
      "name": "itemPriceInWei",
      "outputs": [
        {
          "internalType": "uint256",
          "name": "",
          "type": "uint256"
        }
      ],
      "stateMutability": "view",
      "type": "function"
    },
    {
      "stateMutability": "payable",
      "type": "receive"
    }
  ],
  "bytecode": "0x608060405234801561001057600080fd5b5060405161077938038061077983398181016040528101906100329190610134565b816000819055508060018190555082600360006101000a81548173ffffffffffffffffffffffffffffffffffffffff021916908373ffffffffffffffffffffffffffffffffffffffff160217905550505050610187565b600080fd5b600073ffffffffffffffffffffffffffffffffffffffff82169050919050565b60006100b98261008e565b9050919050565b60006100cb826100ae565b9050919050565b6100db816100c0565b81146100e657600080fd5b50565b6000815190506100f8816100d2565b92915050565b6000819050919050565b610111816100fe565b811461011c57600080fd5b50565b60008151905061012e81610108565b92915050565b60008060006060848603121561014d5761014c610089565b5b600061015b868287016100e9565b935050602061016c8682870161011f565b925050604061017d8682870161011f565b9150509250925092565b6105e3806101966000396000f3fe60806040526004361061002d5760003560e01c80632986c0e51461023a578063c784a6e61461026557610235565b3661023557600060025414610077576040517f08c379a000000000000000000000000000000000000000000000000000000000815260040161006e9061031f565b60405180910390fd5b34600054146100bb576040517f08c379a00000000000000000000000000000000000000000000000000000000081526004016100b2906103b1565b60405180910390fd5b34600260008282546100cd919061040a565b925050819055506000600360009054906101000a900473ffffffffffffffffffffffffffffffffffffffff1673ffffffffffffffffffffffffffffffffffffffff1634600154604051602401610123919061046f565b6040516020818303038152906040527f800fb83f000000000000000000000000000000000000000000000000000000007bffffffffffffffffffffffffffffffffffffffffffffffffffffffff19166020820180517bffffffffffffffffffffffffffffffffffffffffffffffffffffffff83818316178352505050506040516101ad9190610504565b60006040518083038185875af1925050503d80600081146101ea576040519150601f19603f3d011682016040523d82523d6000602084013e6101ef565b606091505b5050905080610233576040517f08c379a000000000000000000000000000000000000000000000000000000000815260040161022a9061058d565b60405180910390fd5b005b600080fd5b34801561024657600080fd5b5061024f610290565b60405161025c919061046f565b60405180910390f35b34801561027157600080fd5b5061027a610296565b604051610287919061046f565b60405180910390f35b60015481565b60005481565b600082825260208201905092915050565b7f414c524541445920504149443a204974656d206973206675727468657220696e60008201527f2074686520636861696e2e000000000000000000000000000000000000000000602082015250565b6000610309602b8361029c565b9150610314826102ad565b604082019050919050565b60006020820190508181036000830152610338816102fc565b9050919050565b7f554e53554646494349454e54205041594d454e543a204f6e6c792066756c6c2060008201527f7061796d656e7473206172652061636365707465642e00000000000000000000602082015250565b600061039b60368361029c565b91506103a68261033f565b604082019050919050565b600060208201905081810360008301526103ca8161038e565b9050919050565b6000819050919050565b7f4e487b7100000000000000000000000000000000000000000000000000000000600052601160045260246000fd5b6000610415826103d1565b9150610420836103d1565b9250827fffffffffffffffffffffffffffffffffffffffffffffffffffffffffffffffff03821115610455576104546103db565b5b828201905092915050565b610469816103d1565b82525050565b60006020820190506104846000830184610460565b92915050565b600081519050919050565b600081905092915050565b60005b838110156104be5780820151818401526020810190506104a3565b838111156104cd576000848401525b50505050565b60006104de8261048a565b6104e88185610495565b93506104f88185602086016104a0565b80840191505092915050565b600061051082846104d3565b915081905092915050565b7f546865207472616e73616374696f6e20646964206e6f7420737563636565643a60008201527f2063616e63656c696e672e2e2e00000000000000000000000000000000000000602082015250565b6000610577602d8361029c565b91506105828261051b565b604082019050919050565b600060208201905081810360008301526105a68161056a565b905091905056fea264697066735822122080d802b8ff428ba33607b6a18bf7ef2e584f7366fa6cd9ce03c597c47059b29c64736f6c634300080e0033",
  "immutableReferences": {},
  "source": "// SPDX-License-Identifier: MIT\npragma solidity >=0.4.22 <0.9.0;\n\nimport \"./ItemManager.sol\";\n\ncontract Item {\n    uint256 public itemPriceInWei;\n    uint256 public index;\n    uint256 pricePaid;\n    ItemManager parentContract;\n\n    constructor(\n        ItemManager _parentContract,\n        uint256 _itemPriceInWei,\n        uint256 _index\n    ) {\n        itemPriceInWei = _itemPriceInWei;\n        index = _index;\n        parentContract = _parentContract;\n    }\n\n    receive() external payable {\n        require(pricePaid == 0, \"ALREADY PAID: Item is further in the chain.\");\n        require(\n            itemPriceInWei == msg.value,\n            \"UNSUFFICIENT PAYMENT: Only full payments are accepted.\"\n        );\n\n        pricePaid += msg.value;\n\n        (bool success, ) = address(parentContract).call{value: msg.value}(\n            abi.encodeWithSignature(\"triggerPayment(uint256)\", index)\n        );\n        require(success, \"The transaction did not succeed: canceling...\");\n    }\n}\n",
  "sourcePath": "/mnt/c/Users/Joo Victor/Desktop/DEV/Luby/LabLuby/Blockchain/supplychaincontract/truffle/contracts/Item.sol",
  "compiler": {
    "name": "solc",
    "version": "0.8.14+commit.80d49f37.Emscripten.clang"
  },
  "schemaVersion": "3.4.7",
  "updatedAt": "2022-07-01T18:52:16.189Z",
  "devdoc": {
    "kind": "dev",
    "methods": {},
    "version": 1
  },
  "userdoc": {
    "kind": "user",
    "methods": {},
    "version": 1
  }
}